{
  "address": "0xFeB4E75A9756D7337CE4AEE834c5298Bf6B4DC6E",
  "abi": [
    {
      "inputs": [],
      "stateMutability": "nonpayable",
      "type": "constructor"
    },
    {
      "inputs": [
        {
          "internalType": "uint256",
          "name": "amount",
          "type": "uint256"
        }
      ],
      "name": "EXCEED_BALANCE",
      "type": "error"
    },
    {
      "inputs": [
        {
          "internalType": "address",
          "name": "token",
          "type": "address"
        }
      ],
      "name": "NOT_WHITELISTED_TOKEN",
      "type": "error"
    },
    {
      "inputs": [],
      "name": "ZERO_ADDRESS",
      "type": "error"
    },
    {
      "inputs": [],
      "name": "ZERO_AMOUNT",
      "type": "error"
    },
    {
      "anonymous": false,
      "inputs": [
        {
          "indexed": true,
          "internalType": "address",
          "name": "account",
          "type": "address"
        },
        {
          "indexed": true,
          "internalType": "address",
          "name": "token",
          "type": "address"
        },
        {
          "indexed": false,
          "internalType": "uint256",
          "name": "amount",
          "type": "uint256"
        }
      ],
      "name": "Deposit",
      "type": "event"
    },
    {
      "anonymous": false,
      "inputs": [
        {
          "indexed": true,
          "internalType": "address",
          "name": "previousOwner",
          "type": "address"
        },
        {
          "indexed": true,
          "internalType": "address",
          "name": "newOwner",
          "type": "address"
        }
      ],
      "name": "OwnershipTransferred",
      "type": "event"
    },
    {
      "anonymous": false,
      "inputs": [
        {
          "indexed": false,
          "internalType": "address",
          "name": "account",
          "type": "address"
        }
      ],
      "name": "Paused",
      "type": "event"
    },
    {
      "anonymous": false,
      "inputs": [
        {
          "indexed": false,
          "internalType": "address",
          "name": "account",
          "type": "address"
        }
      ],
      "name": "Unpaused",
      "type": "event"
    },
    {
      "anonymous": false,
      "inputs": [
        {
          "indexed": true,
          "internalType": "address",
          "name": "account",
          "type": "address"
        },
        {
          "indexed": true,
          "internalType": "address",
          "name": "token",
          "type": "address"
        },
        {
          "indexed": false,
          "internalType": "uint256",
          "name": "amount",
          "type": "uint256"
        }
      ],
      "name": "Withdraw",
      "type": "event"
    },
    {
      "inputs": [
        {
          "internalType": "address",
          "name": "_token",
          "type": "address"
        }
      ],
      "name": "addToWhiteList",
      "outputs": [],
      "stateMutability": "nonpayable",
      "type": "function"
    },
    {
      "inputs": [
        {
          "internalType": "address",
          "name": "",
          "type": "address"
        },
        {
          "internalType": "address",
          "name": "",
          "type": "address"
        }
      ],
      "name": "balanceOf",
      "outputs": [
        {
          "internalType": "uint256",
          "name": "",
          "type": "uint256"
        }
      ],
      "stateMutability": "view",
      "type": "function"
    },
    {
      "inputs": [
        {
          "internalType": "address",
          "name": "_token",
          "type": "address"
        },
        {
          "internalType": "uint256",
          "name": "_amount",
          "type": "uint256"
        }
      ],
      "name": "deposit",
      "outputs": [],
      "stateMutability": "nonpayable",
      "type": "function"
    },
    {
      "inputs": [
        {
          "internalType": "address",
          "name": "",
          "type": "address"
        }
      ],
      "name": "isWhitelisted",
      "outputs": [
        {
          "internalType": "bool",
          "name": "",
          "type": "bool"
        }
      ],
      "stateMutability": "view",
      "type": "function"
    },
    {
      "inputs": [],
      "name": "owner",
      "outputs": [
        {
          "internalType": "address",
          "name": "",
          "type": "address"
        }
      ],
      "stateMutability": "view",
      "type": "function"
    },
    {
      "inputs": [],
      "name": "pause",
      "outputs": [],
      "stateMutability": "nonpayable",
      "type": "function"
    },
    {
      "inputs": [],
      "name": "paused",
      "outputs": [
        {
          "internalType": "bool",
          "name": "",
          "type": "bool"
        }
      ],
      "stateMutability": "view",
      "type": "function"
    },
    {
      "inputs": [
        {
          "internalType": "address",
          "name": "_token",
          "type": "address"
        }
      ],
      "name": "removeFromWhiteList",
      "outputs": [],
      "stateMutability": "nonpayable",
      "type": "function"
    },
    {
      "inputs": [],
      "name": "renounceOwnership",
      "outputs": [],
      "stateMutability": "nonpayable",
      "type": "function"
    },
    {
      "inputs": [
        {
          "internalType": "address",
          "name": "newOwner",
          "type": "address"
        }
      ],
      "name": "transferOwnership",
      "outputs": [],
      "stateMutability": "nonpayable",
      "type": "function"
    },
    {
      "inputs": [],
      "name": "unpause",
      "outputs": [],
      "stateMutability": "nonpayable",
      "type": "function"
    },
    {
      "inputs": [
        {
          "internalType": "address",
          "name": "_token",
          "type": "address"
        },
        {
          "internalType": "uint256",
          "name": "_amount",
          "type": "uint256"
        }
      ],
      "name": "withdraw",
      "outputs": [],
      "stateMutability": "nonpayable",
      "type": "function"
    }
  ],
  "transactionHash": "0x8bf7599abe413050bcb0424b909ae118bd656937573d4efbfc1b829136d60078",
  "args": [],
  "numDeployments": 1,
  "solcInputHash": "d053135270266fd99a0ddf53ebb89b83",
  "bytecode": "0x608060405234801561001057600080fd5b5061001a3361002c565b6000805460ff60a01b1916905561007c565b600080546001600160a01b038381166001600160a01b0319831681178455604051919092169283917f8be0079c531659141344cd1fd0a4f28419497f9722a3daafe3b4186f6b6457e09190a35050565b610bc78061008b6000396000f3fe608060405234801561001057600080fd5b50600436106100b45760003560e01c8063715018a611610071578063715018a6146101465780638456cb591461014e5780638da5cb5b14610156578063f2fde38b14610171578063f3fef3a314610184578063f7888aec1461019757600080fd5b806301bf6648146100b95780633af32abf146100ce5780633f4ba83a1461010657806347e7ef241461010e57806347ee0394146101215780635c975abb14610134575b600080fd5b6100cc6100c7366004610a7d565b6101d0565b005b6100f16100dc366004610a7d565b60016020526000908152604090205460ff1681565b60405190151581526020015b60405180910390f35b6100cc610244565b6100cc61011c366004610a9f565b610256565b6100cc61012f366004610a7d565b610340565b600054600160a01b900460ff166100f1565b6100cc6103b6565b6100cc6103c8565b6000546040516001600160a01b0390911681526020016100fd565b6100cc61017f366004610a7d565b6103d8565b6100cc610192366004610a9f565b61044e565b6101c26101a5366004610ac9565b600260209081526000928352604080842090915290825290205481565b6040519081526020016100fd565b6101d8610577565b6001600160a01b0381166101ff5760405163538ba4f960e01b815260040160405180910390fd5b6001600160a01b03811660009081526001602052604090205460ff1615610241576001600160a01b0381166000908152600160205260409020805460ff191690555b50565b61024c610577565b6102546105d1565b565b6001600160a01b038216600090815260016020526040902054829060ff166102a1576040516309ca5ce160e01b81526001600160a01b03821660048201526024015b60405180910390fd5b6102a9610626565b816000036102ca57604051630f6fa54560e41b815260040160405180910390fd5b6102df6001600160a01b038416333085610673565b6001600160a01b03831660008181526002602090815260408083203380855290835292819020805487019055518581527f5548c837ab068cf56a2c2479df0882a4922fd203edb7517321831d95078c5f6291015b60405180910390a3505050565b610348610577565b6001600160a01b03811661036f5760405163538ba4f960e01b815260040160405180910390fd5b6001600160a01b03811660009081526001602052604090205460ff16610241576001600160a01b03166000908152600160208190526040909120805460ff19169091179055565b6103be610577565b61025460006106e4565b6103d0610577565b610254610734565b6103e0610577565b6001600160a01b0381166104455760405162461bcd60e51b815260206004820152602660248201527f4f776e61626c653a206e6577206f776e657220697320746865207a65726f206160448201526564647265737360d01b6064820152608401610298565b610241816106e4565b6001600160a01b038216600090815260016020526040902054829060ff16610494576040516309ca5ce160e01b81526001600160a01b0382166004820152602401610298565b61049c610626565b816000036104bd57604051630f6fa54560e41b815260040160405180910390fd5b6001600160a01b03831660009081526002602090815260408083203384529091529020548211156105045760405163e78f067160e01b815260048101839052602401610298565b6001600160a01b03831660008181526002602090815260408083203380855292529091208054859003905561053a919084610777565b6040518281526001600160a01b0384169033907f9b1bfa7fa9ee420a16e124f794c35ac9f90472acc99140eb2f6447c714cad8eb90602001610333565b6000546001600160a01b031633146102545760405162461bcd60e51b815260206004820181905260248201527f4f776e61626c653a2063616c6c6572206973206e6f7420746865206f776e65726044820152606401610298565b6105d96107ac565b6000805460ff60a01b191690557f5db9ee0a495bf2e6ff9c91a7834c1ba4fdd244a5e8aa4e537bd38aeae4b073aa335b6040516001600160a01b03909116815260200160405180910390a1565b600054600160a01b900460ff16156102545760405162461bcd60e51b815260206004820152601060248201526f14185d5cd8589b194e881c185d5cd95960821b6044820152606401610298565b6040516001600160a01b03808516602483015283166044820152606481018290526106de9085906323b872dd60e01b906084015b60408051601f198184030181529190526020810180516001600160e01b03166001600160e01b0319909316929092179091526107fc565b50505050565b600080546001600160a01b038381166001600160a01b0319831681178455604051919092169283917f8be0079c531659141344cd1fd0a4f28419497f9722a3daafe3b4186f6b6457e09190a35050565b61073c610626565b6000805460ff60a01b1916600160a01b1790557f62e78cea01bee320cd4e420270b5ea74000d11b0c9f74754ebdbfc544b05a2586106093390565b6040516001600160a01b0383166024820152604481018290526107a790849063a9059cbb60e01b906064016106a7565b505050565b600054600160a01b900460ff166102545760405162461bcd60e51b815260206004820152601460248201527314185d5cd8589b194e881b9bdd081c185d5cd95960621b6044820152606401610298565b6000610851826040518060400160405280602081526020017f5361666545524332303a206c6f772d6c6576656c2063616c6c206661696c6564815250856001600160a01b03166108d19092919063ffffffff16565b90508051600014806108725750808060200190518101906108729190610afc565b6107a75760405162461bcd60e51b815260206004820152602a60248201527f5361666545524332303a204552433230206f7065726174696f6e20646964206e6044820152691bdd081cdd58d8d9595960b21b6064820152608401610298565b60606108e084846000856108e8565b949350505050565b6060824710156109495760405162461bcd60e51b815260206004820152602660248201527f416464726573733a20696e73756666696369656e742062616c616e636520666f6044820152651c8818d85b1b60d21b6064820152608401610298565b600080866001600160a01b031685876040516109659190610b42565b60006040518083038185875af1925050503d80600081146109a2576040519150601f19603f3d011682016040523d82523d6000602084013e6109a7565b606091505b50915091506109b8878383876109c3565b979650505050505050565b60608315610a32578251600003610a2b576001600160a01b0385163b610a2b5760405162461bcd60e51b815260206004820152601d60248201527f416464726573733a2063616c6c20746f206e6f6e2d636f6e74726163740000006044820152606401610298565b50816108e0565b6108e08383815115610a475781518083602001fd5b8060405162461bcd60e51b81526004016102989190610b5e565b80356001600160a01b0381168114610a7857600080fd5b919050565b600060208284031215610a8f57600080fd5b610a9882610a61565b9392505050565b60008060408385031215610ab257600080fd5b610abb83610a61565b946020939093013593505050565b60008060408385031215610adc57600080fd5b610ae583610a61565b9150610af360208401610a61565b90509250929050565b600060208284031215610b0e57600080fd5b81518015158114610a9857600080fd5b60005b83811015610b39578181015183820152602001610b21565b50506000910152565b60008251610b54818460208701610b1e565b9190910192915050565b6020815260008251806020840152610b7d816040850160208701610b1e565b601f01601f1916919091016040019291505056fea26469706673582212207e03efe591adbfeb7c6cc7228d8a843c97f9a2330a37aaace91fbe2a149605b364736f6c63430008140033",
  "devdoc": {
    "events": {
      "Paused(address)": {
        "details": "Emitted when the pause is triggered by `account`."
      },
      "Unpaused(address)": {
        "details": "Emitted when the pause is lifted by `account`."
      }
    },
    "kind": "dev",
    "methods": {
      "owner()": {
        "details": "Returns the address of the current owner."
      },
      "paused()": {
        "details": "Returns true if the contract is paused, and false otherwise."
      },
      "renounceOwnership()": {
        "details": "Leaves the contract without owner. It will not be possible to call `onlyOwner` functions. Can only be called by the current owner. NOTE: Renouncing ownership will leave the contract without an owner, thereby disabling any functionality that is only available to the owner."
      },
      "transferOwnership(address)": {
        "details": "Transfers ownership of the contract to a new account (`newOwner`). Can only be called by the current owner."
      }
    },
    "version": 1
  },
  "userdoc": {
    "kind": "user",
    "methods": {
      "balanceOf(address,address)": {
        "notice": "deposited amount for a particular token"
      },
      "isWhitelisted(address)": {
        "notice": "whitelisted tokens"
      }
    },
    "version": 1
  },
  "storageLayout": {
    "storage": [
      {
        "astId": 7,
        "contract": "contracts/Vault.sol:Vault",
        "label": "_owner",
        "offset": 0,
        "slot": "0",
        "type": "t_address"
      },
      {
        "astId": 130,
        "contract": "contracts/Vault.sol:Vault",
        "label": "_paused",
        "offset": 20,
        "slot": "0",
        "type": "t_bool"
      },
      {
        "astId": 1697,
        "contract": "contracts/Vault.sol:Vault",
        "label": "isWhitelisted",
        "offset": 0,
        "slot": "1",
        "type": "t_mapping(t_address,t_bool)"
      },
      {
        "astId": 1704,
        "contract": "contracts/Vault.sol:Vault",
        "label": "balanceOf",
        "offset": 0,
        "slot": "2",
        "type": "t_mapping(t_address,t_mapping(t_address,t_uint256))"
      }
    ],
    "types": {
      "t_address": {
        "encoding": "inplace",
        "label": "address",
        "numberOfBytes": "20"
      },
      "t_bool": {
        "encoding": "inplace",
        "label": "bool",
        "numberOfBytes": "1"
      },
      "t_mapping(t_address,t_bool)": {
        "encoding": "mapping",
        "key": "t_address",
        "label": "mapping(address => bool)",
        "numberOfBytes": "32",
        "value": "t_bool"
      },
      "t_mapping(t_address,t_mapping(t_address,t_uint256))": {
        "encoding": "mapping",
        "key": "t_address",
        "label": "mapping(address => mapping(address => uint256))",
        "numberOfBytes": "32",
        "value": "t_mapping(t_address,t_uint256)"
      },
      "t_mapping(t_address,t_uint256)": {
        "encoding": "mapping",
        "key": "t_address",
        "label": "mapping(address => uint256)",
        "numberOfBytes": "32",
        "value": "t_uint256"
      },
      "t_uint256": {
        "encoding": "inplace",
        "label": "uint256",
        "numberOfBytes": "32"
      }
    }
  }
}